{
  "_format": "hh-sol-artifact-1",
  "contractName": "TipMe",
  "sourceName": "contracts/TipMe.sol",
  "abi": [
    {
      "inputs": [],
      "stateMutability": "nonpayable",
      "type": "constructor"
    },
    {
      "inputs": [],
      "name": "GetTips",
      "outputs": [
        {
          "components": [
            {
              "internalType": "string",
              "name": "name",
              "type": "string"
            },
            {
              "internalType": "string",
              "name": "message",
              "type": "string"
            },
            {
              "internalType": "uint256",
              "name": "timestamp",
              "type": "uint256"
            },
            {
              "internalType": "address",
              "name": "from",
              "type": "address"
            }
          ],
          "internalType": "struct TipMe.Tip[]",
          "name": "",
          "type": "tuple[]"
        }
      ],
      "stateMutability": "view",
      "type": "function"
    },
    {
      "inputs": [
        {
          "internalType": "string",
          "name": "name",
          "type": "string"
        },
        {
          "internalType": "string",
          "name": "message",
          "type": "string"
        }
      ],
      "name": "PayTip",
      "outputs": [],
      "stateMutability": "payable",
      "type": "function"
    }
  ],
  "bytecode": "0x608060405234801561001057600080fd5b5033600160006101000a81548173ffffffffffffffffffffffffffffffffffffffff021916908373ffffffffffffffffffffffffffffffffffffffff160217905550610b73806100616000396000f3fe6080604052600436106100295760003560e01c8063c3e3deef1461002e578063d788c12314610059575b600080fd5b34801561003a57600080fd5b50610043610075565b60405161005091906105ff565b60405180910390f35b610073600480360381019061006e919061076a565b610258565b005b60606000805480602002602001604051908101604052809291908181526020016000905b8282101561024f57838290600052602060002090600402016040518060800160405290816000820180546100cc90610811565b80601f01602080910402602001604051908101604052809291908181526020018280546100f890610811565b80156101455780601f1061011a57610100808354040283529160200191610145565b820191906000526020600020905b81548152906001019060200180831161012857829003601f168201915b5050505050815260200160018201805461015e90610811565b80601f016020809104026020016040519081016040528092919081815260200182805461018a90610811565b80156101d75780601f106101ac576101008083540402835291602001916101d7565b820191906000526020600020905b8154815290600101906020018083116101ba57829003601f168201915b50505050508152602001600282015481526020016003820160009054906101000a900473ffffffffffffffffffffffffffffffffffffffff1673ffffffffffffffffffffffffffffffffffffffff1673ffffffffffffffffffffffffffffffffffffffff168152505081526020019060010190610099565b50505050905090565b6000341161029b576040517f08c379a00000000000000000000000000000000000000000000000000000000081526004016102929061089f565b60405180910390fd5b600160009054906101000a900473ffffffffffffffffffffffffffffffffffffffff1673ffffffffffffffffffffffffffffffffffffffff166108fc349081150290604051600060405180830381858888f19350505050158015610303573d6000803e3d6000fd5b50600060405180608001604052808481526020018381526020014281526020013373ffffffffffffffffffffffffffffffffffffffff168152509080600181540180825580915050600190039060005260206000209060040201600090919091909150600082015181600001908161037b9190610a6b565b5060208201518160010190816103919190610a6b565b506040820151816002015560608201518160030160006101000a81548173ffffffffffffffffffffffffffffffffffffffff021916908373ffffffffffffffffffffffffffffffffffffffff16021790555050505050565b600081519050919050565b600082825260208201905092915050565b6000819050602082019050919050565b600081519050919050565b600082825260208201905092915050565b60005b8381101561044f578082015181840152602081019050610434565b60008484015250505050565b6000601f19601f8301169050919050565b600061047782610415565b6104818185610420565b9350610491818560208601610431565b61049a8161045b565b840191505092915050565b6000819050919050565b6104b8816104a5565b82525050565b600073ffffffffffffffffffffffffffffffffffffffff82169050919050565b60006104e9826104be565b9050919050565b6104f9816104de565b82525050565b6000608083016000830151848203600086015261051c828261046c565b91505060208301518482036020860152610536828261046c565b915050604083015161054b60408601826104af565b50606083015161055e60608601826104f0565b508091505092915050565b600061057583836104ff565b905092915050565b6000602082019050919050565b6000610595826103e9565b61059f81856103f4565b9350836020820285016105b185610405565b8060005b858110156105ed57848403895281516105ce8582610569565b94506105d98361057d565b925060208a019950506001810190506105b5565b50829750879550505050505092915050565b60006020820190508181036000830152610619818461058a565b905092915050565b6000604051905090565b600080fd5b600080fd5b600080fd5b600080fd5b7f4e487b7100000000000000000000000000000000000000000000000000000000600052604160045260246000fd5b6106778261045b565b810181811067ffffffffffffffff821117156106965761069561063f565b5b80604052505050565b60006106a9610621565b90506106b5828261066e565b919050565b600067ffffffffffffffff8211156106d5576106d461063f565b5b6106de8261045b565b9050602081019050919050565b82818337600083830152505050565b600061070d610708846106ba565b61069f565b9050828152602081018484840111156107295761072861063a565b5b6107348482856106eb565b509392505050565b600082601f83011261075157610750610635565b5b81356107618482602086016106fa565b91505092915050565b600080604083850312156107815761078061062b565b5b600083013567ffffffffffffffff81111561079f5761079e610630565b5b6107ab8582860161073c565b925050602083013567ffffffffffffffff8111156107cc576107cb610630565b5b6107d88582860161073c565b9150509250929050565b7f4e487b7100000000000000000000000000000000000000000000000000000000600052602260045260246000fd5b6000600282049050600182168061082957607f821691505b60208210810361083c5761083b6107e2565b5b50919050565b600082825260208201905092915050565b7f506c65617365205469702067726561746572207468616e203020657468657200600082015250565b6000610889601f83610842565b915061089482610853565b602082019050919050565b600060208201905081810360008301526108b88161087c565b9050919050565b60008190508160005260206000209050919050565b60006020601f8301049050919050565b600082821b905092915050565b6000600883026109217fffffffffffffffffffffffffffffffffffffffffffffffffffffffffffffffff826108e4565b61092b86836108e4565b95508019841693508086168417925050509392505050565b6000819050919050565b600061096861096361095e846104a5565b610943565b6104a5565b9050919050565b6000819050919050565b6109828361094d565b61099661098e8261096f565b8484546108f1565b825550505050565b600090565b6109ab61099e565b6109b6818484610979565b505050565b5b818110156109da576109cf6000826109a3565b6001810190506109bc565b5050565b601f821115610a1f576109f0816108bf565b6109f9846108d4565b81016020851015610a08578190505b610a1c610a14856108d4565b8301826109bb565b50505b505050565b600082821c905092915050565b6000610a4260001984600802610a24565b1980831691505092915050565b6000610a5b8383610a31565b9150826002028217905092915050565b610a7482610415565b67ffffffffffffffff811115610a8d57610a8c61063f565b5b610a978254610811565b610aa28282856109de565b600060209050601f831160018114610ad55760008415610ac3578287015190505b610acd8582610a4f565b865550610b35565b601f198416610ae3866108bf565b60005b82811015610b0b57848901518255600182019150602085019450602081019050610ae6565b86831015610b285784890151610b24601f891682610a31565b8355505b6001600288020188555050505b50505050505056fea2646970667358221220eb11fb29129d6e71904c4c0fa4afcfb6e10df2904d114e5bcb31cc43b4690ce864736f6c63430008110033",
  "linkReferences": {},
  "deployedLinkReferences": {}
}